:020000040800F2
:1000000018080020C50100080B2500080D21000874
:100010000925000843040008B92A00080000000070
:100020000000000000000000000000000F25000894
:100030005D050008000000000D25000811250008DE
:10004000DF010008DF010008DF010008DF01000810
:10005000DF010008DF010008DF010008DF01000800
:10006000DF010008DF010008DF0100088904000843
:1000700095040008DF010008DF010008DF01000827
:10008000DF010008A1040008DF0100085104000896
:1000900045040008DF010008DF010008DF01000857
:1000A000DF010008DF010008DF010008DF010008B0
:1000B000DF010008DF010008DF010008DF010008A0
:1000C000DF010008DF010008DF010008DF01000890
:1000D000DF010008DF010008A5290008B929000890
:1000E000DF010008DF010008DF010008DF01000870
:1000F000DF010008DF010008DF010008DF01000860
:10010000DF010008DF010008DF010008DF0100084F
:10011000DF010008DF010008DF010008C525000835
:10012000DF010008DF010008DF010008DF0100082F
:10013000DF010008DF010008DF010008DF0100081F
:10014000DF010008DF010008DF010008DF0100080F
:10015000DF010008AD040008DF010008CD29000818
:10016000DF010008DF010008DF010008DF010008EF
:10017000DF010008DF010008DF01000800000000C7
:10018000DF010008DF01000899260008AD260008FD
:10019000DF010008DF010008DF010008DF010008BF
:1001A0000000000000000000DF010008DFF810D0B0
:1001B00000F0D4F800480047052B0008AFF300809A
:1001C000180800200648804706480047FEE7FEE77B
:1001D000FEE7FEE7FEE7FEE7FEE7FEE7FEE7FEE7F7
:1001E000A9250008AD0100082DE9F05F05460020B3
:1001F00092469B4688460646814640241BE0284698
:1002000041464746224600F060F853465A46C01A17
:10021000914110D311461846224600F047F82D1A96
:1002200067EB01084F4622460120002100F03EF80E
:1002300017EB00094E41201EA4F10104DFDC484603
:1002400031462A464346BDE8F09FD2B201E000F8AD
:10025000012B491EFBD270470022F6E710B513466A
:100260000A4604461946FFF7F0FF204610BD30B598
:1002700005462A460B4612F8010B13F8014B08B14C
:10028000A042F8D01CB1002802D06D1CF1E728462E
:1002900030BD70B5064602F021FC046805460A220E
:1002A0000021304600F021F82C6070BD202A04DBCC
:1002B000203A00FA02F1002070479140C2F1200379
:1002C00020FA03F3194390407047202A04DB203AB8
:1002D00021FA02F00021704721FA02F3D040C2F166
:1002E000200291400843194670472DE9F047914696
:1002F0000F4680460446002614F8015B2DB100F03D
:100300003FF80068405DC007F6D12B2D02D02D2D9F
:1003100018D0641E4A463946204600F035F827B109
:100320003968A14201D1C7F8008071054FF002047D
:100330000BD54042002803DD02F0D0FB0460A0078B
:10034000BDE8F08746F48066E4E70028F8DA02F0BA
:10035000C5FB04606FF00040F2E70000064C074D5B
:1003600006E0E06840F0010394E807009847103485
:10037000AC42F6D3FFF71EFFEC2D00080C2E000850
:1003800000487047E82D00082DE9F05F82460078AC
:10039000002715468B460AF10104B946302801D0E2
:1003A0009DB113E014F8010B0127782803D05828D9
:1003B00001D045B10AE00DB1102D07D1002710255D
:1003C00014F8010B02E0082500E00A250026B046DB
:1003D0000EE005FB080005FB06F1012701EB1046C6
:1003E0001FFA80F8B6F5803F00D3B94614F8010B28
:1003F000294600F018F80028EBDABBF1000F05D011
:100400000FB1641E00E05446CBF80040B9F1000F74
:1004100006D002F063FB02210160C81EBDE8F09F18
:1004200048EA0640FAE73A2800D2303820F02002A5
:10043000412A01D3A2F13700884201D34FF0FF30A7
:100440007047FEE7014800F008BA0000EC00002009
:10045000014800F002BA0000EC00002070B5094D20
:10046000FF22134605F5807606E000BF10F8014B29
:1004700054402A5D5A40335D491EC9B2F6D243EA60
:10048000022070BD642B0008014800F05FBC000032
:10049000F4020020014800F059BC00009402002042
:1004A000014800F053BC000054030020014800F054
:1004B0004DBC0000B403002001681823CAB2103AF2
:1004C000B2FBF3F2054B6FF30901032A9B5CC36592
:1004D00000D9091D8165084670470000442B0008BB
:1004E00010B5014600208B698A6A4FF0C07453B181
:1004F000B3F5005F15D072B1012A0CD0022A0AD0E0
:10050000032A09D104E01AB1012A06D0022A03D134
:10051000C96AC90100D5012010BDC96AA142FAD03B
:1005200010BD002AF7D0012AF2D0022AF3D0032A04
:10053000F3D010BD30B50468256825F4802525600A
:10054000046863608368402B036803D09960006887
:10055000C26030BD9A600068C16030BD704772B63D
:10056000FEE790F82020012A07D0022A05D0416A30
:1005700041F48021416201207047006842690A43CA
:10058000426100207047F0B590F820500468A468DC
:10059000012D05D0022D03D0416A41F480215DE098
:1005A00014F0406F01D1E50055D5C4F30164022C6D
:1005B00003D9416A41F4000150E00125A5401D60C6
:1005C0008D684FF4C0739DB1CE6835434E6845EADF
:1005D000C605066803EB0417F5514FF4C2750768AA
:1005E00005EB04150E697E51097D012905D009E04E
:1005F0000E88CD6845EA4655EBE701684E5946F44A
:1006000080764E511179D579567941EA056195790F
:100610002D0445EA062529434FF4C676056806EB06
:100620000416A9511178D57841EA05619578527878
:100630002D0445EA022211434FF4C475026805EB0C
:1006400004155151006803EB0411425842F00102B5
:1006500042500020F0BD416A41F400114162012086
:10066000F0BD000010B590F82020012A07D0022A22
:1006700005D0416A41F480214162012010BD3B4810
:10068000D0F8002242F00102C0F80022D0F8002287
:1006900022F47C52C0F80022D0F800224B6A42EAD1
:1006A0000322C0F800220A7D02F01F0301229A40B3
:1006B000D0F81C329343C0F81C32CB69B3B9D0F8E0
:1006C0000C329343C0F80C328C894B6864F31F439F
:1006D0004C6900EBC404C4F840320C890B6864F325
:1006E0001F434C6900EBC404C4F84432CB69012BAE
:1006F00016D1D0F80C321343C0F80C320C884B687A
:1007000064F31F434C6900EBC404C4F840320C8905
:10071000CB6864F31F434C6900EBC404C4F8443253
:100720008B69002BD0F804320ED01343C0F804328A
:100730000B69002BD0F8143208D01343C0F81432E0
:10074000096A012904D008E09343EFE79343F5E7F2
:10075000D0F81C121143C0F81C12D0F8001221F07E
:100760000101C0F80012002010BD0000006400402C
:10077000704730B590F82040012C05D0022C03D0F2
:10078000416A41F480215DE00468002955D0246964
:10079000A40754D04FF4D874056804EB01142D5904
:1007A00015F00405956005682D594ED0ED0855608B
:1007B00005682C5904F00204D4604FF4DA7405681B
:1007C00004EB01142D5905F00F05156105682D592D
:1007D000C5F30725956105682C59240C54614FF425
:1007E000DC72046802EB0112A4581C700468A4585F
:1007F000240A5C700468A458240C9C700468A258F5
:10080000120EDA704FF4DE72046802EB0112A45883
:100810001C710468A458240A5C710468A458240C50
:100820009C710468A258120EDA71006881B10169E6
:1008300041F020010161002030BDE468A8E7416A71
:1008400041F400114162012030BD6D0D1560AFE72C
:10085000C16841F02001C160EDE72DE9F05F054678
:10086000006800244669D0F804908768D0F80CB07E
:10087000D0F810A0D0F81880F10748D0F90714D0AC
:1008800001218160B80703D5284600F046FA0CE044
:10089000780702D54FF4006407E0380702D54FF41B
:1008A000805402E0284600F037FAF80516D529688A
:1008B0004FF480708860B80503D5284600F02FFA01
:1008C0000CE0780502D544F4005407E0380502D561
:1008D00044F4804402E0284600F020FAF80316D5DC
:1008E00029684FF480308860B80303D5284600F0AB
:1008F00018FA0CE0780302D544F4004407E038030A
:1009000002D544F4803402E0284600F009FA3007AA
:1009100007D55FEACB6004D52968102044F4007441
:10092000C86070074FF0080707D55FEA0B7004D561
:100930002868C760284600F05FF9B00706D5286828
:10094000C068800702D0284600F058F9700607D525
:100950005FEACA6004D52968102044F48064086105
:10096000B00607D55FEA0A7004D5286807612846F3
:1009700000F0A2F9F00606D528680069800702D0C9
:10098000284600F09AF9B00308D55FEAC96005D59A
:10099000296810204860284600F090F9F00307D538
:1009A0005FEA097004D528684760284600F0BAF964
:1009B000300446D55FEA497040D5F00504D55FEABA
:1009C000C87001D044F00104B00504D55FEA887016
:1009D00001D544F00204700504D55FEA487001D5E2
:1009E00044F00404300529D518F0700F26D008F023
:1009F0007000402815D006DC102809D020280AD025
:100A0000302816D10AE050280ED0602811D10EE00F
:100A100044F008040DE044F010040AE044F020041F
:100A200007E044F0400404E044F0800401E044F4B2
:100A300080742868816921F070018161296804202F
:100A40004860002C05D0686A204368622846FFF79A
:100A50008FFEBDE8F09F70B5040003D094F820002D
:100A600010B104E0012070BD204600F081F820683C
:100A7000016821F00201016000F0C4FB0546052673
:100A800004E000F0BFFB401B0A2811D82068406832
:100A90008007F6D42068016841F00101016000F090
:100AA000B1FB05460BE000F0ADFB401B0A2806D960
:100AB000606A40F40030606284F82060D2E7206809
:100AC0004068C007EFD0207E0128206801683DD033
:100AD00021F080010160607E01282068016838D023
:100AE00021F040010160A07E01282068016833D018
:100AF00021F020010160E07E0128206801682ED0ED
:100B000041F010010160207F01282068016829D090
:100B100021F008010160607F01282068016824D06D
:100B200021F004010160D4E902010843D4E9041270
:100B3000114308436168491E08432168C8610020C9
:100B40006062012084F82000002070BD41F0800127
:100B5000C0E741F04001C5E741F02001CAE721F0BC
:100B60001001CFE741F00801D4E741F00401D9E7D3
:100B700010B586B0044614216846FFF76DFB1B498B
:100B8000206888422FD11A480021026842F0007282
:100B90000260006800F00070059015481038026887
:100BA00042F0080202600068022200F0080005908E
:100BB0000320CDE90210CDE9000209200490694626
:100BC0000C4800F035FA00221146132000F088FB93
:100BD000132000F077FB00221146142000F080FB68
:100BE000142000F06FFB06B010BD00000064004050
:100BF00040380240000C02407047000010B58CB035
:100C0000044609AB6A460021FFF7B3FD00200790B8
:100C100008902548844232D10098B0F5007F30D04A
:100C2000A0F5007001382AD19DF8240007AA0128F8
:100C30002DD0022823D11D4900200B189B78135476
:100C4000401CC0B20628F8D3002210460B5C401CA2
:100C50001A44C0B2D2B20A28F8D3887A904208D196
:100C6000062107A8FFF7FAFB010A8DF822108DF87C
:100C7000230007AA40F211210B4801F0CDFE0CB071
:100C800010BDBDF824000A4940BA0880F7E70949B9
:100C900000200B185B781354401CC0B20428F8D312
:100CA0004FF40471E8E70000EC000020D8000020B9
:100CB000000000201C0000207047704770470000B3
:100CC00070B5044690F82000012804D0606A40F412
:100CD0000020606218E0022084F82000206801688B
:100CE00021F00101016000F08DFA05460EE000BF21
:100CF00000F088FA401B0A2808D9606A40F40030E6
:100D00006062052084F82000012070BD20684068E2
:100D1000C007EDD1606270BD704770477047704783
:100D200070477047704790F83510022903D0802132
:100D3000416501207047052180F835100068016881
:100D400021F0010101600020704700002DE9F84307
:100D500004464FF00009CDF8009063484FF4165157
:100D6000A56D0068B0FBF1F72E6894F85C100820C0
:100D700000FA01F131420FD021680A6852070BD501
:100D80000A6822F004020A6094F85C108840A860A7
:100D9000606D40F00100606594F85C104FF0010850
:100DA00008FA01F0304208D021684969090604D5E3
:100DB000A860606D40F00200606594F85C1004204B
:100DC0008840304208D021680968890704D5A860A6
:100DD000606D40F00400606594F85C10102088405D
:100DE000304218D021680968090714D5A860206826
:100DF0000168490304D50068000308D5A16C07E029
:100E00000168C90503D4016821F008010160216C63
:100E100009B12046884794F85C1020208840304271
:100E200031D021680968C9062DD5A86094F835002D
:100E300005282068016806D0490347D500680003EB
:100E40001DD4616C1CE021F016010160206841692D
:100E500021F080014161206C08B9A06C20B12068AC
:100E6000016821F00801016094F85C103F2088407F
:100E7000A86084F8349084F83580216D1FE0E16B20
:100E800009B120468847606D00282BD0606DC007EF
:100E900014D0052084F835002068016821F0010194
:100EA00001600098401C0090B84203D82068006898
:100EB000C007F6D184F8349084F83580E16C0029BD
:100EC00010D001B02046BDE8F04308470168C905CD
:100ED000D5D4016821F01001016084F8349084F8C1
:100EE0003580CCE7BDE8F883300000202DE9F041E3
:100EF000044600F087F906465CB1002584F83450BA
:100F0000022084F835002068016821F001010160A9
:100F10000DE00120BDE8F08100F074F9801B052888
:100F200005D920206065032084F83500F2E72068A9
:100F30000068C007F0D12268116820480140D4E958
:100F400001031843D4E90336334318436369184354
:100F5000A3691843E3691843236A18430843616A85
:100F6000042903D1D4E90B13194308431060206806
:100F70004069666A20F0070130460E4301270428C5
:100F80000CD1A06A0643E06A40B12046FFF7A8FAF8
:100F900020B14020606584F83570BAE7206846616A
:100FA0002046FFF789FA94F85C203F219140816048
:100FB000656584F835700020ACE700003F8010F0D4
:100FC0002DE9F0410446866D90F834000025012893
:100FD0000DD0012084F8340094F835700020012FE2
:100FE00007D084F8340002252846BDE8F0810220AD
:100FF000FBE7022784F8357060652046FFF79AFA10
:1010000094F85C103F208840B0602068016841F08F
:1010100016010160206C20B12068016841F00801D0
:1010200001602068016841F001010160DCE7000017
:101030002DE9F84F00224FF0010803254FF00F0E65
:101040000B6808FA02F42340A3426ED14E68012EC9
:1010500005D0022E03D0112E01D0122E12D1866897
:101060004FEA420C05FA0CF7BE43CF6807FA0CF7BB
:10107000374387604668A6430C79C4F30014944054
:1010800034434460C668570005FA07FC8C6826EABA
:101090000C06BC403443C4604C68022C01D0122CB6
:1010A00013D1D40800EB8404A346D4F8209054074D
:1010B0004FEAD46A0EFA0AF629EA06090E6906FA18
:1010C0000AF646EA0906CBF8206004680E7924EA9D
:1010D0000C0406F00306BE40264306604C68E4009C
:1010E0006FD53B4C266846F480462660246822F083
:1010F000030604F480440094364C3444A446D4F8E7
:1011000008489607360F0EFA06F7BC43324FB8422E
:1011100001D100272EE0314FB84201D1012729E04B
:101120002F4FB84202D1022724E04AE02D4FB842A7
:1011300001D103271EE02C4FB84201D1042719E04A
:101140002A4FB84201D1052714E0294FB84201D1F6
:1011500006270FE0274FB84201D107270AE0264FA4
:10116000B84201D1082705E0244FB84201D1092730
:1011700000E00A27B7402743CCF80878204E3468AF
:101180004F689C43FF0300D51C4334601C4E361D42
:1011900034684F689C43BF0300D51C433460184E2D
:1011A000083634684F689C43FF0200D51C43346006
:1011B000134E0C3634684F689C43BF0200D51C4365
:1011C0003460521C102AFFF43BAFBDE8F88F0000DA
:1011D0004438024000300140000002400004024058
:1011E00000080240000C02400010024000140240BF
:1011F00000180240001C024000200240002402406F
:10120000003C014001488068704700002400002035
:1012100002488168027811448160704724000020F0
:101220000B4810B5016841F400710160016841F498
:1012300080610160016841F480710160032000F069
:101240006FF8002000F006F800F024F8002010BD30
:10125000003C024070B50D4D04464FF47A71287879
:10126000B1FBF0F00A490968B1FBF0F000F004FBB3
:1012700048B9102C07D200222146501E00F030F849
:1012800000206C6070BD012070BD000024000020B3
:10129000300000200A4808B5016841F4804101602F
:1012A000006800F4804000900548001F016841F08C
:1012B00080510160006800F08050009008BD00007F
:1012C00044380240002809DB00F01F020121914050
:1012D0004009800000F1E020C0F8001170470000D4
:1012E000F0B40E4B1B680C46C3F30223C3F1070591
:1012F000042D00D90425191D072901D2002300E07F
:10130000DB1E012606FA05F1491E214099409E4048
:10131000761E16403143F0BC01F0CFBB0CED00E06F
:10132000064900F0070208684FF6FF03184040EA3C
:101330000220034A10430860704700000CED00E0F3
:101340000000FA052DE9F0470E46050065D0DFF8EC
:101350001481D8F80000F7B200F00F00B04207D2B5
:1013600088F80070D8F8000000F00F00B04254D1A7
:1013700028683D4C810712D5400703D5206840F40A
:10138000E05020602878000703D5206840F46040D2
:1013900020602068A96820F0F000084320602878C9
:1013A000C0072DD0304968680839012812D00228BA
:1013B00013D0032811D00968890700292DDA216884
:1013C00021F0030101432160FFF71CFF814641F238
:1013D000883A0EE009688903EFE709688901ECE7BC
:1013E000FFF710FFA0EB0901514502D90320BDE82A
:1013F000F0872068696800F00C00B0EB810FEFD136
:10140000D8F80010404601F00F01B14207D907702B
:10141000006800F00F00B04201D00120E7E7287813
:10142000400705D52068E96820F4E05008432060B3
:101430002878000706D52068296920F4604040EA32
:10144000C100206000F038F82168084AC1F3031198
:10145000515CC8400649086006480068FFF7FAFE7C
:101460000020C4E7003C0240083802404C2B000832
:101470003000002028000020044805490068096861
:10148000044AC1F38221515CC840704730000020FB
:10149000083802405C2B00080448054900680968C8
:1014A000044AC1F34231515CC8407047300000200B
:1014B000083802405C2B0008154810B5006810F091
:1014C0000C02144813D01449042A0FD0082A0ED154
:1014D0000F4C241F2268236802F03F025B0207D5ED
:1014E0002068C0F38810A0FB010106E0084610BD8B
:1014F0002168C1F38811A1FB00010023FEF774FEEF
:101500002168C1F30141491C4900B0FBF1F010BD55
:10151000083802400024F400001BB7002DE9F84F02
:1015200004006ED02078DFF83C93C007A9F10405D1
:101530004AD009F104000168C1F38101012908D0F2
:101540000068C0F3810002280AD1D9F800004002E7
:1015500006D52868800337D560680028E1D033E0DD
:101560006068B0F5803F10D0B0F5A02F286810D08B
:1015700020F480302860286820F48020286060688B
:10158000A8B1FFF73FFE06460DE0286840F4803022
:10159000F4E740F480202860F7E700BFFFF732FE51
:1015A000801B642873D828688003F7D50CE0FFF708
:1015B00029FE064605E000BFFFF724FE801B6428D5
:1015C000F0D828688003F7D42078DFF89C82800761
:1015D0004FF0000A3ED5A348001D016811F00C0F22
:1015E00008D00068C0F3810002280BD1D9F80000B0
:1015F000400207D42868800716D5E068012800D18A
:1016000012E02BE1E068B8B10120C8F80000FFF754
:10161000F9FD064605E000BFFFF7F4FD801B022838
:10162000C0D828688007F7D52868216920F0F8001D
:1016300040EAC10028600DE0C8F800A0FFF7E2FD15
:10164000064604E0FFF7DEFD801B02281FD828684D
:101650008007F7D42078000722D5824E834861693D
:10166000703671B101210160FFF7CCFD074604E03F
:10167000FFF7C8FDC01B022809D830688007F7D5DE
:101680000EE0C0F800A0FFF7BDFD074605E082E0D0
:10169000FFF7B8FDC01B02287DD830688007F7D45B
:1016A0002078400768D5DFF8BCB100270BF13C0B70
:1016B000DBF80000C0000BD4DBF8001041F08051D3
:1016C000CBF80010DBF80000012700F080500090FC
:1016D000674E3068C00510D4306840F480703060C8
:1016E000FFF790FD009005E0FFF78CFD0099401A90
:1016F000022850D83068C005F6D55A4EA0686C361E
:1017000001280FD00528306810D020F0010030608B
:10171000306820F004003060A068B8B1FFF772FDB7
:1017200000900FE0306840F00100F4E740F0040062
:101730003060F7E7FFF766FD0099411A41F2883003
:10174000814266D830688007F4D50EE0FFF75AFD75
:10175000009007E0FFF756FD0099411A41F28830EA
:10176000814256D830688007F4D42FB1DBF80010DE
:1017700021F08051CBF80010A069C8B33949091D88
:101780000968C1F3810102294AD00228504607D0D6
:10179000C8F8600000E03CE0FFF734FD04463BE0A1
:1017A0004746C8F86000FFF72DFD064605E000BF7C
:1017B000FFF728FD801B02282BD828688001F7D46A
:1017C000D4E907010843A16A2A4A490802EB01410A
:1017D000626A41EA8211084394F82C1040EA0161E0
:1017E000C9F8001001203866FFF70CFD044606E03A
:1017F00036E000BFFFF706FD001B022809D8286865
:101800008001F7D52CE000BFFFF7FCFC001B02288D
:1018100002D90320BDE8F88F28688001F4D41FE0C6
:101820000128F7D0D9F80000E26900F48001914264
:1018300014D1226A00F03F0191420FD147F6C071E6
:10184000626A0140914209D1A26A00F4403191429A
:1018500004D1E16A00F07060884201D00120D9E72C
:101860000020D7E70438024000004742800E47427C
:10187000007000400000FFFF10B5401EB0F1807FF7
:1018800001D3012010BD4FF0E02460610F216017EB
:1018900001F013F90020A06107202061002010BD95
:1018A0007047704770B590F83C20012A32D001246F
:1018B00080F83C40022280F83D2003685A689D6809
:1018C00022F070060A6832435A60134B02689A424B
:1018D00014D0B2F1804F11D0104B9A420ED0104B61
:1018E0009A420BD00F4B9A4208D00F4B9A4205D028
:1018F0000E4B9A4202D00E4B9A4204D1496825F011
:1019000080031943916080F83D40002180F83C102D
:10191000084670BD022070BD000001400004004078
:1019200000080040000C004000040140004001405D
:101930000018004010B5040003D094F83D0010B129
:1019400007E0012010BD002084F83C00204600F094
:101950000DF8022084F83D00211D206800F038FEBB
:10196000012084F83D00002010BD000008B500688B
:101970000B49884212D10B48016841F020010160F7
:101980000068002200F02000009011463720FFF789
:10199000A7FCBDE808403720FFF794BC08BD000055
:1019A00000140040403802400168CA6842F0010259
:1019B000CA600068816801F00701062903D0016848
:1019C00041F00101016000207047704770B5044686
:1019D000006801694FF00005C943890715D4C16843
:1019E000C943890711D4E91E0161012020772068CD
:1019F00080698007204602D0FFF7E7FF04E000F08F
:101A000098F8204600F096F8257720680169C943C8
:101A1000490717D4C168C943490713D46FF00401BB
:101A20000161022020772068806910F4407F204601
:101A300002D0FFF7CAFF04E000F07BF8204600F078
:101A400079F8257720680169C943090716D4C16868
:101A5000C943090712D46FF00801016104202077FF
:101A60002068C0698007204602D0FFF7AEFF04E07F
:101A700000F05FF8204600F05DF8257720680169E6
:101A8000C943C90617D4C168C943C90613D46FF046
:101A900010010161082020772068C06910F4407FA0
:101AA000204602D0FFF791FF04E000F042F8204604
:101AB00000F040F8257720680169C943C90708D1BB
:101AC000C168C943C90704D1891E0161204600F0DD
:101AD00033F820680169C943090609D4C168C943BC
:101AE000090605D46FF0800101612046FFF7D8FE9A
:101AF00020680169C943490609D4C168C943490638
:101B000005D46FF040010161204600F087F820689D
:101B10000169C94389060BD4C168C943890607D442
:101B20006FF0200101612046BDE87040FFF7B9BEAB
:101B300070BD70477047000070B530490068096893
:101B400088425AD12E482F49028809888A4201D9F1
:101B5000012600E0002642888A4201D9012300E0E4
:101B6000002382888A4201D9012200E00022C08835
:101B7000884201D9012100E000210020224C0225E9
:101B800056B101260BB18AB30BE01AB149B16070AE
:101B9000A67006E041BB04E01BB91AB309B160703E
:101BA000A57003211848FEF759FC010AE170164997
:101BB000207108220839154800F066FA12490822F7
:101BC0000839134800F060FA0F4908220839114813
:101BD00000F05AFABDE870400B49082208390E4857
:101BE00000F052BA0029DCD1607004E0FFE709B1CF
:101BF000667000E06570A070D3E770BD140100202E
:101C00000C000020000000201C000020D401002057
:101C100054020020540100209401002070477047B6
:101C200070B5026804461068D168536910F00F0F50
:101C300052D003F0010501F490762E435FD0C20725
:101C400005D0CA0503D5E26B42F00102E263420708
:101C500005D5DA0703D0E26B42F00202E2638207A5
:101C600005D5DA0703D0E26B42F00402E263020713
:101C700007D501F020022A4303D0E26B42F00802AC
:101C8000E263E26B002A33D0800604D5880602D5D1
:101C9000204600F075FD20684069E16BC0F38010BC
:101CA000090700D428B3204600F053FD206841699D
:101CB00049061AD5416921F040014161606BA0B12C
:101CC0001B490165606BFFF72EF8002810D0606B90
:101CD000016DBDE870400847830610D58B060ED510
:101CE0002046BDE8704000F04BBD2046FFF797FF4F
:101CF00070BD2046FFF793FF0020E06370BD030630
:101D000006D50B0604D52046BDE8704000F018BE8D
:101D10004006F3D54806F1D5D168204621F04001B0
:101D2000D160202184F8391000F0EEF970BD000078
:101D3000C126000870B5040004D094F839000025CD
:101D400010B106E0012070BD84F83850204600F044
:101D500023F8242084F839002068C16821F4005158
:101D6000C160204600F058FD2068016921F49041CF
:101D700001612068416921F02A0141612068C16840
:101D800041F40051C160E563202084F8390084F8F3
:101D90003A00002070BD00002DE9F04F87B00546E5
:101DA00014216846FEF758FAAA48DFF8A4821038D2
:101DB000D5F800C00024A74B02220321DFF898E2E7
:101DC000402607154FF0010B4FF008094FF0206A2D
:101DD000C4453CD1D3F800C04CF0804CC3F800C0DF
:101DE0001B6803F080430593036843F0100303600E
:101DF000006800F010000590CDE90319C8018DE8D6
:101E0000050869467046FFF713F9DFF854829349D5
:101E10004046C0E90264C0E90474C8F81840C8F834
:101E20001C40C8F82040C8E9001AC8F82440FFF751
:101E30005DF808B1FEF793FBC5F83080002211462B
:101E40005220C8F83850FFF74BFA522041E0DFF833
:101E50001482C44542D1D3F800C04CF0004CC3F802
:101E600000C01B6803F000430593036843F01003B0
:101E70000360006800F0100005908DE80608CDE9C9
:101E8000031969467046FFF7D3F8DFF8D481734928
:101E900008F1600840461839C0E90264C0E90474DA
:101EA000C8F81840C8F81C40C8F82040C8E9001A13
:101EB000C8F82440FFF71AF808B1FEF750FBC5F840
:101EC0003080002211465320C8F83850FFF708FA36
:101ED0005320FFF7F7F907B0BDE8F08FDFF88881EE
:101EE000DFF888E14FF0070BC44545D1D3F800C0B7
:101EF0004CF4003CC3F800C01B6803F400330593A6
:101F0000036843F0080303600068CDE9024100F074
:101F1000080005906020CDE90002CDF810B06946B8
:101F20007046FFF785F8DFF838814C4908F1C008A2
:101F30007831C8F8001040464FF00061C8F804102E
:101F4000C0E90264C0E90474C8F81840C8F81C402D
:101F5000C8F82040C8F82440FEF7C8FF08B1FEF7D3
:101F6000FEFAC5F83080002211462620C8F8385005
:101F7000FFF7B6F92620ACE7DFF8F480C44522D19C
:101F80001D6845F480251D601B6803F480230593BC
:101F9000036843F0080303600068CDE9024100F0E4
:101FA000080005904FF44070CDE90002CDF810B064
:101FB00069467046FFF73CF8002211462720FFF7DC
:101FC0008FF9272085E72B4B9C4584D1214B1B1D86
:101FD000D3F800C04CF0200CC3F800C01B6803F01D
:101FE00020030593036843F0400303600068CDE9D4
:101FF000024100F0400005904FF48440CDE900021A
:10200000CDF8109069461C48FFF712F8DFF8708091
:102010001A494046C0E90264C0E90474C8F818408F
:10202000C8F81C40C8F82040C8E9001AC8F8244085
:10203000FEF75CFF08B1FEF792FAC5F83080002287
:1020400011464720C8F83850FFF74AF9472040E7C3
:1020500000780040403802400010024028600240F2
:1020600094020020007C004000440040000C02402C
:10207000004800400014014000180240A0640240E3
:10208000B40300207047000070B5044690F8390092
:10209000202830D169B362B394F8380001282AD0DF
:1020A000012084F838002162A284E2840025E563DF
:1020B000212084F83900236B1048D863236B104823
:1020C0001864236B0F48D864206B13460565266897
:1020D000206B321DFEF774FF21686FF0400008602E
:1020E00084F838502068416941F080014161002046
:1020F00070BD012070BD022070BD00001B270008CC
:1021000049270008D126000870477047FEE7000005
:1021100018B50A4800680168094A890605D5436868
:10212000084C11896354491C11810168C90604D502
:102130000368002140680090118118BD140200203E
:1021400002000020D800002010B50C4604A1FEF7C4
:102150008EF8002803D0001DFEF79BF8208010BDEC
:10216000643A20200000000038B50E48006801687D
:102170000D4C890605D542680C4B21885A54491CE0
:1021800021800168C9060CD50168002540680090CF
:102190002088072804D1044904480A31FFF7D4FFF6
:1021A000258038BDD4010020020000203800002026
:1021B00038B51048006801680F4C890607D5426899
:1021C0000E4B61880B44491C83F82820618001680C
:1021D000C9060DD501680025406800906088072871
:1021E00005D1054905480C312830FFF7ADFF658062
:1021F00038BD0000540200200200002038000020FA
:1022000038B51048006801680F4C890607D5426848
:102210000E4BA1880B44491C83F85020A180016813
:10222000C9060DD50168002540680090A0880728E0
:1022300005D1054905480E315030FFF785FFA580CF
:1022400038BD0000540100200200002038000020AA
:1022500038B51048006801680F4C890607D54268F8
:102260000E4BE1880B44491C83F87820E18001681B
:10227000C9060DD50168002540680090E088072850
:1022800005D10549054810317830FFF75DFFE5803D
:1022900038BD00009401002002000020380000201A
:1022A0000F4810B50D4901600721416000214FF42E
:1022B00080328160C0E9031252014261017601223D
:1022C00042768276C17601774277FEF7C4FB00281A
:1022D00003D0BDE81040FEF742B910BD00640040D5
:1022E000EC000020194808B5016841F400110160B4
:1022F000016801F400110091016841F4800101605E
:102300000068002200F48000009011460B20FEF7C8
:10231000E7FF0B20FEF7D6FF002211460C20FEF748
:10232000DFFF0C20FEF7CEFF002211461120FEF742
:10233000D7FF1120FEF7C6FF002211464520FEF709
:10234000CFFFBDE808404520FEF7BCBF3038024053
:10235000154808B5016841F010010160016801F0FD
:1023600010010091016841F040010160016801F035
:1023700040010091016841F001010160016801F034
:1023800001010091016841F008010160016801F05C
:1023900008010091016841F080010160006800F0CF
:1023A0008000009008BD0000303802401CB50024B9
:1023B0000E4800940C49019401605321C0E90114B6
:1023C00044F61F618461C160FFF7B4FA08B1FEF7FB
:1023D000C6F80094694605480194FFF763FA00289F
:1023E00001D0FEF7BCF81CBD001400401401002011
:1023F0000C4810B50A4901604FF4E13141600021F9
:1024000081600C22C160C0E904128161C161FFF7E3
:1024100091FC002803D0BDE81040FEF7A0B810BD25
:1024200000780040540100200C4810B50A490160B2
:102430004FF4E1314160002181600C22C160C0E9AC
:1024400004128161C161FFF775FC002803D0BDE86B
:102450001040FEF784B810BD007C004094010020BD
:102460000C4810B50A4901604FF4E1314160002188
:1024700081600C22C160C0E904128161C161FFF773
:1024800059FC002803D0BDE81040FEF768B810BD25
:1024900000440040D40100200C4810B50A490160F6
:1024A0004FF4E1314160002181600C22C160C0E93C
:1024B00004128161C161FFF73DFC002803D0BDE833
:1024C0001040FEF74CB810BD004800401402002038
:1024D0000C4810B50A4901604FF4E1314160002118
:1024E00081600C22C160C0E904128161C161FFF703
:1024F00021FC002803D0BDE81040FEF730B810BD25
:102500000014014054020020FEE7FEE770477047C8
:10251000FEF77EBE30B593B030216846FDF79CFED5
:1025200014210CA8FDF798FE1D480025016841F014
:1025300080510160006800F08050119019480168D6
:1025400041F4404101600068022400F440401190D1
:1025500001200090000401908001CDE90640062092
:102560000890A820CDE9090404200B906846FEF7E6
:10257000D5FF08B172B6FEE70CA90F2081E8310043
:102580004FF4A0500F904FF48050109005210CA8EC
:10259000FEF7D8FE002801D072B6FEE713B030BDBA
:1025A00040380240007000400548016841F4700165
:1025B000016003494FF000608039086070470000F7
:1025C00088ED00E00148FFF701BA00001401002087
:1025D000F0B50268254C264D264E274F274B4FF06D
:1025E000804CA04209D0604507D0A84205D0B04237
:1025F00003D0B84201D0984204D122F0700E4A684C
:1026000042EA0E02A0421BD0604519D0A84217D062
:10261000B04215D0B84213D0984211D0184DA842FC
:102620000ED0184DA8420BD0174DA84208D0174D18
:10263000A84205D0164DA84202D0164DA84203D19B
:1026400022F44075CA682A434D6922F080022A4369
:1026500002608A68C2620A688262A04201D098421F
:1026600001D10969016301214161F0BD0000014010
:102670000004004000080040000C0040000401403D
:102680000040014000440140004801400018004063
:10269000001C00400020004010B5FFF7B1FDBDE870
:1026A00010400148FFF7BCBA5401002010B5FFF7F5
:1026B000CFFDBDE810400148FFF7B2BA94010020F9
:1026C00010B5806B0021C185C184FFF7A8FA10BD49
:1026D00070B5846B2068406994F83910C0F3C0105D
:1026E0000025212904D118B1E584204600F03FF8E7
:1026F0002068406994F83A10C0F38010222904D170
:1027000018B1E585204600F024F8E06B40F0100099
:10271000E0632046FFF783FA70BD10B50146806B79
:1027200009680968C9050CD40021C18401684A6997
:1027300022F080024A610068C16841F04001C16036
:1027400010BDFFF7E1FC10BD10B5806BFFF7DDFC9D
:1027500010BD0168CA6822F49072CA6001684A69B3
:1027600022F001024A61202180F83A107047016886
:10277000CA6822F0C002CA60202180F83910704770
:1027800010B590F83A10222901D0022010BD8168BE
:10279000B1F5805F11D00169002901681FD0496837
:1027A00001F07F03816A4A1C82620B70C18D491E51
:1027B0000904090CC18518D02BE00269816A002A3E
:1027C0000268526805D0D2B20A80816A491C8162CF
:1027D000ECE7C2F308020A80816A891CF7E74A68BD
:1027E000816A4B1C83620A70E0E70168CA6822F0C4
:1027F0002002CA600168CA6822F48072CA60016857
:102800004A6922F001024A61202180F83A10FFF75C
:1028100039FC002010BD00002DE9F041044600689D
:102820000169E26821F44051114301612169A06806
:10283000E26908436169114308432168CA6849F2A3
:102840000C639A430243CA6020684169A26921F47B
:10285000407111434161E069192764253226B0F5C2
:10286000004F354A354920684FF0000806D08842AD
:1028700001D0904236D1FEF70FFE35E0884201D0FC
:10288000904202D1FEF708FE01E0FEF7F5FD616817
:102890004A18A0FB070148EB0803FDF7A5FC014619
:1028A000B0FBF5F00201B1FBF5F06FF018035843EF
:1028B00001EB800006EBC000B0FBF5F000F0F80083
:1028C00002EB4002B1FBF5F0584301EB800006EB50
:1028D000C000B0FBF5F000F00700216810448860EC
:1028E000BDE8F081FEF7C8FD61688B0F8A00A0FB90
:1028F0000701FDF779FC0146B0FBF5F06FF0180217
:10290000504301EB800006EB0010B0FBF5F000F047
:10291000F002B1FBF5F002EB0012B1FBF5F06FF045
:102920001803584301EB800006EB0010B0FBF5F0F4
:1029300000F00F00D1E7000000140140001001403A
:1029400090F83910212901D0022070478168B1F533
:10295000805F016A0BD04A1C0262026809785160EC
:10296000C18C491E0904090CC1840ED017E00988E6
:102970000268C1F30801516001690029016A02D0AF
:10298000491C0162ECE7891CFBE70168CA6822F078
:102990008002CA600068C16841F04001C160002047
:1029A0007047000010B5FFF7DFFBBDE8104001489D
:1029B000FFF736B9D401002010B5FFF7A9FBBDE839
:1029C00010400148FFF72CB91402002010B5FFF7A2
:1029D000EFFBBDE810400148FFF722B95402002088
:1029E00000B58BB000200121CDE9060108910090CF
:1029F0000190029003900590049069460548FDF708
:102A000031FE0448FEF75CF902210248FDF7A9FDFA
:102A10000BB000BDEC00002000B587B00123009191
:102A2000002102910391082104916946FDF7ABFD55
:102A300007B000BD1B490868C26842F02002C260AE
:102A40000868C16841F01001C16017490868C26890
:102A500042F02002C2600868C16841F01001C16004
:102A600012490868C26842F02002C2600868C16862
:102A700041F01001C1600E490868C26842F02002AE
:102A8000C2600868C16841F01001C1600949086866
:102A9000C26842F02002C2600868C16841F01001BB
:102AA000C1607047D40100201402002054020020AD
:102AB0005401002094010020FEE70907090E0028B8
:102AC00004DB00F1E02080F80014704700F00F00F4
:102AD00000F1E02080F8141D7047000000487047A6
:102AE0003400002002E008C8121F08C1002AFAD1F1
:102AF00070477047002001E001C1121F002AFBD17E
:102B000070470000FEF78CFBFFF704FDFFF720FC89
:102B1000FFF7E8FBFFF74AFCFFF7A2FCFFF7D8FC42
:102B2000FFF766FCFFF780FCFFF7BAFBFFF7B4FC8A
:102B3000FFF780FFFFF754FF0148FEF735FFFEE780
:102B400014010020000610160006101600000000F8
:102B5000000000000102030406070809000000004D
:102B60000102030400C1814001C0804101C08041D5
:102B700000C1814001C0804100C1814000C181404D
:102B800001C0804101C0804100C1814000C181403D
:102B900001C0804100C1814001C0804101C080412D
:102BA00000C1814001C0804100C1814000C181401D
:102BB00001C0804100C1814001C0804101C080410D
:102BC00000C1814000C1814001C0804101C08041FD
:102BD00000C1814001C0804100C1814000C18140ED
:102BE00001C0804101C0804100C1814000C18140DD
:102BF00001C0804100C1814001C0804101C08041CD
:102C000000C1814000C1814001C0804101C08041BC
:102C100000C1814001C0804100C1814000C18140AC
:102C200001C0804100C1814001C0804101C080419C
:102C300000C1814001C0804100C1814000C181408C
:102C400001C0804101C0804100C1814000C181407C
:102C500001C0804100C1814001C0804101C080416C
:102C600000C1814000C0C101C30302C2C60607C73C
:102C700005C5C404CC0C0DCD0FCFCE0E0ACACB0BAC
:102C8000C90908C8D81819D91BDBDA1A1EDEDF1FDC
:102C9000DD1D1CDC14D4D515D71716D6D21213D3CC
:102CA00011D1D010F03031F133F3F23236F6F7377C
:102CB000F53534F43CFCFD3DFF3F3EFEFA3A3BFB6C
:102CC00039F9F83828E8E929EB2B2AEAEE2E2FEF1C
:102CD0002DEDEC2CE42425E527E7E62622E2E3238C
:102CE000E12120E0A06061A163A3A26266A6A767BC
:102CF000A56564A46CACAD6DAF6F6EAEAA6A6BAB2C
:102D000069A9A86878B8B979BB7B7ABABE7E7FBF5B
:102D10007DBDBC7CB47475B577B7B67672B2B3734B
:102D2000B17170B0509091519353529296565797FB
:102D3000559594549C5C5D9D5F9F9E5E5A9A9B5BEB
:102D400099595898884849894B8B8A4A4E8E8F4F9B
:102D50008D4D4C8C4484854587474686824243830B
:102D6000418180400040404040404040404041411F
:102D70004141414040404040404040404040404050
:102D800040404040400502020202020202020202EA
:102D900002020202022020202020202020202002E7
:102DA0000202020202029090909090901010101077
:102DB0001010101010101010101010101010101013
:102DC00002020202020288888888888808080808A7
:102DD0000808080808080808080808080808080873
:102DE0000202020240000000652D00080C2E0008BF
:102DF0000000002038000000E42A0008442E0008EB
:102E000038000020E0070000F42A0008000000005D
:102E100000000000000000000000000000000000B2
:102E2000500300340001C8455400000000000000B9
:102E30000100000010000000000000000024F40069
:042E4000000000008E
:04000005080001AD41
:00000001FF
